:10000000AAC30000E0C30000DEC30000DCC30000A0
:10001000DAC30000D8C30000D6C30000D4C3000078
:10002000D2C30000D0C30000CEC300000C9444240F
:100030000C94F0240C94081FC6C30000C4C3000035
:10004000C2C30000C0C30000BEC300000C947F1FE9
:10005000BAC30000B8C30000B6C30000B4C30000B8
:10006000B2C30000B0C30000AEC30000ACC30000C8
:10007000AAC30000460043003F00440044454255E7
:10008000473A2064697361626C65642E0A004445D6
:100090004255473A20656E61626C65642E0A006CB9
:1000A00065645F7461736B3A20253032580A004FE3
:1000B0006E6573686F743A206163746976653A207F
:1000C00025640A000A0025303862003A20002530F5
:1000D0003258000A722F63203031323334353637CC
:1000E0000A007267626C696768742074696D657272
:1000F0002064697361626C652E0A007267626C69C4
:100100006768742074696D657220656E61626C65E4
:10011000642E0A007267626C696768742073657484
:1001200020687376205B4E4F454550524F4D5D3AE7
:100130002025752C25752C25750A007267626C695F
:100140006768742073657420687376205B4545503A
:10015000524F4D5D3A2025752C25752C25750A00CA
:100160007267626C69676874207261696E626F772A
:1001700020736574206873763A2025642C25642CDE
:1001800025642C25750A007267626C6967687420A3
:1001900064697361626C65205B454550524F4D5DEB
:1001A0003A207267626C696768745F636F6E666934
:1001B000672E656E61626C65203D2025750A0072B0
:1001C00067626C6967687420656E61626C65205B4C
:1001D000454550524F4D5D3A207267626C696768C1
:1001E000745F636F6E6669672E656E61626C652011
:1001F0003D2025750A007267626C69676874207417
:100200006F67676C65205B454550524F4D5D3A20E6
:100210007267626C696768745F636F6E6669672E88
:10022000656E61626C65203D2025750A007267620B
:100230006C69676874206D6F6465205B4E4F45453F
:1002400050524F4D5D3A2025750A007267626C6905
:10025000676874206D6F6465205B454550524F4D53
:100260005D3A2025750A007267626C696768745F81
:10027000696E6974207267626C696768745F636F26
:100280006E6669672E6D6F6465203D20302E2057A5
:10029000726974652064656661756C742076616C42
:1002A00075657320746F20454550524F4D2E0A00DE
:1002B0007267626C696768745F696E6974207374D1
:1002C000617274210A007267626C696768745F63A7
:1002D0006F6E6669672E7370656564203D202564C6
:1002E0000A007267626C696768745F636F6E666943
:1002F000672E76616C203D2025640A007267626C6F
:10030000696768745F636F6E6669672E73617420D6
:100310003D2025640A007267626C696768745F63D8
:100320006F6E6669672E687565203D2025640A003A
:100330007267686C696768745F636F6E6669672E61
:100340006D6F6465203D2025640A007267626C69E8
:100350006768745F636F6E6669672E76656C6F633E
:10036000696B6579203D2025640A007267626C69BB
:100370006768745F636F6E6669672E656E61626C35
:1003800065203D2025640A007267626C69676874A5
:100390005F636F6E66696720454550524F4D3A0A5C
:1003A000001E0F0500047F3F1F643214643214786E
:1003B0003C1E1E140A052223252628292A2C2D2F0F
:1003C0003032333536383A3B3D3E4042434547496B
:1003D0004A4C4E5051535557595A5C5E60626466A0
:1003E00068696B6D6F71737577797B7D7F818385AC
:1003F00087898A8C8E90929496989A9C9E9FA1A3AE
:10040000A5A7A8AAACAEAFB1B3B4B6B8B9BBBCBED1
:10041000BFC1C2C3C5C6C7C9CACBCCCDCED0D1D24D
:10042000D2D3D4D5D6D7D7D8D9D9DADADBDBDBDC4F
:10043000DCDCDCDCDDDDDDDDDCDCDCDCDCDBDBDBFB
:10044000DADAD9D9D8D7D7D6D5D4D3D2D2D1D0CE5B
:10045000CDCCCBCAC9C7C6C5C3C2C1BFBEBCBBB960
:10046000B8B6B4B3B1AFAEACAAA8A7A5A3A19F9EDE
:100470009C9A98969492908E8C8A89878583817FA6
:100480007D7B79777573716F6D6B69686664626087
:100490005E5C5A5957555351504E4C4A4947454353
:1004A00042403E3D3B3A3836353332302F2D2C2AF0
:1004B000292826252322FFAA7F554000010101019A
:1004C000010101010102020202020202020203030F
:1004D00003030303030304040404040404050505DF
:1004E00005050606060606070707070708080808A1
:1004F000090909090A0A0A0B0B0B0C0C0C0D0D0D4E
:100500000E0E0E0F0F0F10101111111212131314E3
:1005100014151516161717181819191A1A1B1B1C5B
:100520001D1D1E1E1F2020212222232424252626B5
:10053000272829292A2B2C2D2D2E2F3031323233EA
:100540003435363738393A3B3C3D3E3F40414243F3
:100550004445464748494A4C4D4E4F5051535455D7
:100560005658595A5B5D5E5F616264656668696B87
:100570006C6D6F7072737577787A7B7D7E80828305
:100580008587888A8C8E8F91939596989A9C9EA049
:10059000A2A3A5A7A9ABADAFB1B3B5B7BABCBEC056
:1005A000C2C4C6C9CBCDCFD1D4D6D8DBDDDFE2E41F
:1005B000E7E9EBEEF0F3F5F8FAFDFF0A092D204329
:1005C0006F6E736F6C65202D0A4553432F713A0986
:1005D000717569740A003F00433E20000A0025300F
:1005E000325820006B6579626F6172645F7265706A
:1005F0006F72743A2025303258207C200073757356
:1006000070656E64696E67206B6579626F61726494
:100610000D0A005B575D005B535D005B525D00207F
:1006200003420069006700530065007200690065BD
:10063000007300200034002D004B0065007900009D
:10064000001E0357006F006F0064004B00650079C7
:100650000073002E0063006C00690063006B0000F3
:10066000000403090409025400030100A0FA09046C
:1006700000000103010100092111010001224400D1
:1006800007058103080001090401000103000000BF
:100690000921110100012232000705820320000117
:1006A00009040200010300000009211101000122D8
:1006B000150007058303200001120100020000005D
:1006C00008EDFE74600200010200010631FF0974AA
:1006D000A1010975150026FF00952075088102C04B
:1006E00005010980A101850319012AB7001501261A
:1006F000B700950175108100C0050C0901A10185A5
:100700000419012AA002150126A002950175108185
:1007100000C005010906A101050719E029E7150038
:10072000250195087501810295017508810105076C
:10073000190029FF150026FF0095067508810005A0
:1007400008190129051500250195057501910295E6
:100750000175039101C011241FBECFEFD4E0DEBFAD
:10076000CDBF04B603FE18C08091F5029091F60249
:10077000A091F702B091F8028730904BA740B04BA0
:1007800059F41092F5021092F6021092F7021092AC
:10079000F802E0E0F8E3099511E0A0E0B1E0E6E658
:1007A000F1E502C005900D92AE3DB107D9F722E008
:1007B000AEEDB1E001C01D92A53FB207E1F70E9486
:1007C00064130C9467281CCCFF93EF93E091DE0137
:1007D000F091DF01309709F00995EF91FF910895AD
:1007E000FC018591803011F0EFDFFBCF0895FF27EA
:1007F000E0E230E247FF0CC0419597FF09C0EDE20F
:100800006095709580959095611D711D811D911D5C
:1008100027FF02C0219530E350E2AA27660F771F19
:10082000881F991FAA1FA41710F0A41B63955A953F
:10083000A9F7AA3008F0A95FA05DAF93F395611501
:1008400071058105910541F7ED3211F4EF93F395B0
:10085000F21718F43F93F395FBCF8F91B5DFFA951C
:10086000E1F70895E991F9918591803021F0853281
:1008700019F0AADFF9CF089520E0E8945591553298
:10088000C1F3503311F4689455915A3348F45053DE
:1008900090F3220F022E220F220F200D250FF4CFEE
:1008A0000EF4219589919991533619F3533729F113
:1008B000533559F1BC0188279927E8945C3621F417
:1008C0008991999168945591543639F446EF7EF0A8
:1008D00077FF0DC08FEF9FEF0AC055374AE039F020
:1008E000583540E121F0523642E009F00895FF9377
:1008F000EF937DDFEF91FF91B7CFFF93EF93FC0173
:1009000081918030B9F360DFFBCFFF93EF9368DF15
:10091000F1CFDF93CF93CDB7DEB72596A3DFCF918D
:10092000DF910895811111C0623078F4423068F48B
:10093000E62FF0E0EE0FFF1FE40FF11DEE0FFF1F9B
:10094000EC58FF4F85919491089581E090E00895CF
:10095000E9CF089581E00895FDCF0895FBCF089574
:1009600081E00895F7CF0895F5CF0895FDCF08955C
:1009700008950895FDCF089508950895A6E0B0E084
:10098000E4ECF4E00C94332749835A839E8330913E
:10099000E50189819A81311117C03E81332389F0A5
:1009A000222379F051D5182F682F89819A812CD56F
:1009B00069817A81812F0E9442102696E3E00C948F
:1009C0004F2732D5182FF4CF3FD569817A81F3CFE5
:1009D000FC01262F40815181628173818481958140
:1009E000CDCFCF93DF93EC0161E0F2DFBE01B4DF46
:1009F000882349F061E0CE01EBDFBE01AFDF8170FB
:100A0000DF91CF91089580E0FACF0F931F93CF939A
:100A1000DF93EC0160E0DCDF8C01BE01AADFBE01E8
:100A2000C801A8DFDF91CF911F910F91089521E0B8
:100A300030E0A90102C0440F551F8A95E2F7CA01B0
:100A40001CC4CF93C82F81E090E00C2E02C0880F09
:100A5000991F0A94E2F70E94490E8C2FE8DFCF918C
:100A6000089581E00895FDCF0895FBCF0895CF93B9
:100A7000C82FBBD38C2FF7DF8C2FF7DF2FEF84E34A
:100A80009CE0215080409040E1F700C00000CF91F1
:100A9000089581E0ECDF0C94A31F80E0E8DF0C9464
:100AA000C71F0F931F93CF93DF938C0161E090DFFB
:100AB000EC01F801858181110E94471BB801CE012C
:100AC00051DF811106C080E0DF91CF911F910F911E
:100AD0000895B801CE014ADF8823A9F3B801CE01F9
:100AE0000E942A1D882379F3B801CE010E94F01BD1
:100AF000882349F3B801CE010E94C81B882319F34B
:100B0000B801CE010E947C138823E9F2B801CE011E
:100B10000E9440118823B9F2F8018581882369F089
:100B2000C330FCE7DF0789F158F4C130ECE7DE079A
:100B300071F1B0F4C115DC4789F0C80111DFC4CFF1
:100B4000CB35ECE7DE0741F1CC35FCE7DF0709F1F7
:100B5000CA35DC4791F70E94110EEFCF9ADFB3CF71
:100B600090915002892F8E7F90FF81608093500278
:100B700080FF08C08EE890E09F938F93CADE0F90AD
:100B80000F90A1CF8CE790E0F7CF0E94410E85DF58
:100B90009ACF0E94090ED1CF0E94130ECECFECDE69
:100BA0000E94E51E2FC030D0E8DE0C94E91E82952D
:100BB00090E09C01220F331F220F331F2C7C959550
:100BC0008795959587958373282B30E0C901880F09
:100BD000991F8A7A359527952575822B089581E08E
:100BE00008950895CF93DF93D82FF9DFC82F882376
:100BF00011F08D2FF6DF8C2FDF91CF91089508959E
:100C0000F1CF089580E0FCCF0E94721DF9CFCF9301
:100C10000E94721DC82F8091E0018C17F1F0C093E3
:100C2000E0010E94731F6093E1017093E2018093E1
:100C3000E3019093E401809150028570853059F46E
:100C40001F92CF938FE990E09F938F9362DE0F9076
:100C50000F900F900F908C2FD3DFCF910895ADE0C0
:100C6000B0E0E5E3F6E00C943427488759876A87BB
:100C70007B878C879D8791110FD71F8286E0FE01AD
:100C80003896DE01119601900D928A95E1F78D81DB
:100C900081110CC029813A814B815C816D817E81FB
:100CA0008F8145D62D96E2E00C945027CE01019617
:100CB00098DE8111EFCFF6CFFC012481213019F4A9
:100CC00080819181F2C30895CF93C82F8823B1F01A
:100CD0008CEF8C0F813AA0F48C2F0E948E1B811117
:100CE0000DC08C2F0E94341E882321F08C2F0E946F
:100CF000751E3AD78C2F0E946F1E36D7CF9108955C
:100D000080E28C0F883040F4C77081E001C0880F0A
:100D1000CA95EAF7A4D6F1CFEBE5EC0FE33040F447
:100D2000F0E0E35AFE4F808190E00E94D11DE6CFB3
:100D3000C85ACB3118F7EC2FF0E0EE0FFF1FE95D3A
:100D4000FE4F808191810E94F81DD8CF882319F130
:100D50009CEF980F913A18F40E94751E05C790E217
:100D6000980F983048F4877091E001C0990F8A95E8
:100D7000EAF7892F7AD6F2CF9BE5980F933020F4CB
:100D800090E080E00C94D11D885A8B3120F490E0E3
:100D900080E00C94F81D08951F93CF93DF93182FD4
:100DA000EB0192DF209731F4812FD0DFDF91CF91DB
:100DB0001F9108958FE99FE00197F1F700C00000AF
:100DC0002197F0CF70E060E0893311F460E570E0C6
:100DD000E3CF882311F043D6C7C60895882311F0C6
:100DE00044D6C2C60895B0E0A0E0E9EFF6E00C9466
:100DF0002D276C01D62FC72FFC0115810681029586
:100E00000F7023D6E82E8823E9F0E12E1123D1F0CC
:100E10008C2F807F803461F080E28D0F8830F8F075
:100E20008C2F807E803221F4D230C8F00023B9F0BC
:100E30008091B30282FF13C082E0B2D606D691E061
:100E4000E82EE926BC2EB2949FE0B922FBE0FB1508
:100E500080F1EB2DF0E0E759F74D0C941E27E12CC3
:100E6000F1CF0C2F0F70C07F11F00295007F11237E
:100E700081F0002349F080E28D0F883010F0D1110D
:100E800005C0802FECD570D68D2F40C0802FF7D5B0
:100E9000FACF8D2F5BDF002361F080E28D0F883069
:100EA00010F0D11103C0802FE0D502C0802FEDD506
:100EB0005BD6EB2DE850FF0B349708F048C10E9439
:100EC000721D9EDECDB7DEB7E9E00C9449272C2FCA
:100ED0002F70F22EC07FC03219F0F29480EFF8220A
:100EE000DD2341F0D13081F1112309F439C0002311
:100EF000C9F0CACF8091B30282FD10C0112341F026
:100F0000FF2019F08F2DABD52FD680E0DDDED1CFBD
:100F100080E01CDFFF2069F28F2DC6CF112359F02E
:100F2000011103C08F2D55DFC4CF013009F0C1CFAF
:100F30008F2DC6D5BECF0111BCCF8F2D4FDF8F2D8A
:100F4000CAD58F2DAFD5B5CF112321F0063008F0CB
:100F5000B0CFE8CF053008F0ACCF8F2D3FDFA9CF61
:100F60000023D9F3D93349F43FEF87EE93E03150B2
:100F700080409040E1F700C000008D2FE7DE99CF60
:100F80008C2F86958695837069F0813009F091CF1A
:100F90008D2F9C2F9370111102C080E090E00E9471
:100FA000F81D87CF8D2F9C2F9370111102C080E008
:100FB00090E00E94D11D7DCF8C2F837081F511119F
:100FC00078CF4D2F429546954770440F440F2D2FF3
:100FD0002F7030E0042E02C0220F331F0A94E2F774
:100FE00090E080E0D4FF09C08FE090E002C0880F5D
:100FF000991F4A95E2F780959095C695C695C3705E
:10100000822B932BC23039F040F4C13011F03ED125
:1010100050CF35D14ECF41D14CCF2FD14ACF86952D
:10102000112311F08C2F8170882309F442CF4D2FAA
:10103000429546954770440F440F2D2F2F7030E096
:10104000042E02C0220F331F0A94E2F790E080E0E2
:10105000D4FF09C08FE090E002C0880F991F4A9525
:10106000E2F780959095C695C695C370822B932B19
:10107000C23039F040F4C13011F063D11ACF5AD1E7
:1010800018CF66D116CF16D114CFCF70112321F00F
:101090008C2F24D18D2F47CF8D2FA0DE8C2F2CD1DC
:1010A00008CFD23F39F160F4D03FB9F0D13F81F0A1
:1010B000112309F43CC00111E7CE8C2F8F711EC0A3
:1010C000D33FF1F0D43FA1F78091B30282FD20C05D
:1010D0008C2F8F71112319F311C0112339F00530B2
:1010E00008F0E7CE8C2F8F7117D1E3CE063008F0D1
:1010F000E0CEF8CF8C2F8F711111D1CFEFD0D9CE98
:10110000112321F08C2F8F71DFD0D3CEDAD0D1CE46
:10111000112329F063E08C2F8F712BD5CACE81E08B
:101120003FD5023008F4C5CE82E03AD5C2CE0023C6
:1011300059F0D93309F021CFEFEFF7EE23E0E1507A
:10114000F0402040E1F717CF8C2F8F71A8CFEE2011
:1011500009F4B8CE76D480FDB5CEF60115826BD4F5
:10116000BDD0C60117D067D4C7D0ACCE0F931F93A4
:10117000CF93DF93EC01688179818D819FD18C01C0
:10118000EED07AD0B801CE012EDEDF91CF911F9143
:101190000F910895CF93DF93EC018C81882381F028
:1011A000CE017FDC81110FC050D4882349F08D819E
:1011B000882331F08091B30282FF02C082E0F0D434
:1011C000DF91CF910895CE01D1DFCE011EDCF8CFA3
:1011D00090E080E00E94D11D90E080E00E94F81D28
:1011E0005BD4C2C40E947B1EF3CF46D4FBCF929542
:1011F0009F70963091F058F4925F9F70923058F43F
:10120000803F19F030F4883E30F481E008959A5F11
:10121000F4CF843FD1F380E00895883EB0F3813F5E
:10122000D1F7F3CFFC012481222321F08081918129
:101230003CD1DDCF80E00895A6E0B0E0E2E2F9E045
:101240000C9434272696E2E00C945027A7E0B0E0F7
:10125000ECE2F9E00C9434272796E2E00C94502756
:101260000895FECF0895FDCF0895FADFFCDF909337
:10127000ED018093EC0108950895F7CF0895209132
:10128000EC013091ED01822B932BEFCF2091EC01FB
:101290003091ED0182239323E8CF2091EC0130912E
:1012A000ED0182279327E1CFDBCF0895FDCF08958D
:1012B000D7CF0895FDDFFADF9093EB018093EA0129
:1012C000089590E080E0F6CF21E030E0A90102C06F
:1012D000440F551F8A95E2F7CA01ECCF21E030E0B8
:1012E00002C0220F331F8A95E2F78091EA019091A4
:1012F000EB01822B932BDECF21E030E002C0220FE6
:10130000331F8A95E2F7209530958091EA019091FC
:10131000EB0182239323CECF21E030E002C0220FE5
:10132000331F8A95E2F78091EA019091EB018227C1
:101330009327C0CF2091EA013091EB01822B932BB0
:10134000B9CF2091EA013091EB0182239323B2CFF0
:101350002091EA013091EB0182279327ABCF0895CA
:10136000262F277091E001C0990F2A95EAF723E014
:10137000769567952A95E1F7660F771F660F771FB9
:10138000FA01E60FF71F50E040E0682F70E081910E
:10139000DF0111979B01042E02C0369527950A9410
:1013A000E2F7217021952827292328272C934F5FC6
:1013B0005F4F4430510559F70895A82FA77023E0D7
:1013C000969587952A95E1F7880F991F880F991FA1
:1013D000FB01E80FF91F50E040E080E0219130E090
:1013E0000A2E02C0369527950A94E2F7217033271A
:1013F000042E01C0220F0A94EAF7822B4F5F5F4F41
:101400004430510559F70895262F923060F4823008
:1014100050F4692F70E0660F771F680F711D46EE5C
:1014200051E0822F9DCF0895923060F4823050F4C5
:10143000292F30E0220F331F66EE71E0820F932FC9
:10144000911DBBCF80E00895B0E0A0E0EAE2FAE0B1
:101450000C942D277C010091EA011091EB01809101
:10146000EC019091ED01082B192BCFE0D0E0CC24BA
:10147000C394D12CBC2EC6010C2E02C0880F991F1C
:101480000A94E2F780239123892B49F4219790F75E
:10149000B12C8B2DCDB7DEB7E9E00C944927B7010D
:1014A0008C2FFBD5019791F3F4CFCF93DF93EC0111
:1014B000CBDFBE01F2D5DF91CF9108951F93CF937B
:1014C000DF93EB019091E501992331F0CB01EDDF42
:1014D000DF91CF911F910895882351F0CB01B4DFA4
:1014E000182F682FCE0190DFBE01812FD6D5F0CF07
:1014F000CB019ADF182FF8CFCF93DF93C091EE0185
:101500008091EF018C1303C0DF91CF910895D0E05B
:10151000CE0167E070E00E949226FC01E051FE4F90
:1015200020813181428153816481758186818EDE83
:101530002196C770E5CF2091280230912902409171
:101540002A0250912B0260912C0270912D02809101
:101550002E027CCECF93DF9380912E02807F09F004
:101560004DC080912D02882309F448C02091EE01DE
:101570004091EF01A0912902B0912802C0912A0266
:10158000D0912B024217D1F130E0C90167E070E041
:101590000E94922680519E4FFC018481882389F10C
:1015A000C90167E070E00E949226FC01E051FE4F05
:1015B00081818A1326C080818B1323C0858181118C
:1015C00020C0828193818C1B9D0B883C9105C8F4BF
:1015D00080912E028F70806180932E02C90167E096
:1015E00070E00E949226FC01EA50FE4F90819F70AD
:1015F0009061908388E292E0CDDD7EDFDF91CF9134
:1016000008952F5F3F4F2770BDCFA82FB62F209191
:10161000EE014091EF01241302C080E0089530E014
:10162000C90167E070E00E949226FC01E051FE4F84
:101630008181B81306C08081A81303C08581811100
:10164000EDCF2F5F3F4F2770E6CFA4E1B0E0EBE294
:10165000FBE00C942A278C0186E0F801DE011F963E
:1016600001900D928A95E1F7F8018481E58098E276
:10167000A92E92E0B92E90912C0291111AC08823C4
:10168000A9F0EE2089F0C801CDDDF82E882361F0A5
:1016900087E0F801D50101900D928A95E1F7C50127
:1016A0000BDB58DF48DF59C0C80174DDFF24F39419
:1016B00054C0C080D18082809380F0902D02209110
:1016C0002A0230912B02A401421B530BFF2009F484
:1016D000E9C0483C510508F09CC0882309F43DC08E
:1016E0009091290280912E02282F207F09F056C068
:1016F0009D1114C090912802C91210C0E11048C079
:101700008F70806180932E0216DF88E292E042DDC6
:1017100080912E02F8018683F12C1FC0E11038C0A1
:101720006D2D8C2D72DF6D2D8C2D6FDFE82E8111CC
:10173000F3CFCF86D88A8F859889B7DE292F229557
:101740002F70243078F49F702230A0F09923B1F0EC
:10175000F8019681907F91F4FE2C8F2D6496ECE039
:101760000C9446272A5F2F70223060F0C80112DDEA
:10177000EF2CF2CF992311F0882371F3805E88302B
:1017800058F3F4CF803F40F3815F833078F7E4CFA4
:1017900080912E02816080932E02BECF9D1112C0D7
:1017A00090912802C9120EC0E1100CC08683C801B6
:1017B000F1DC87E0F801A8E2B2E001900D928A9591
:1017C000E1F770CFC8012EDD882309F46DCFEE203C
:1017D00009F46ACF80912E02803280F02091280295
:1017E00030912902398728879B868A8690912C021E
:1017F0009C871D868E87CE010896CCDC87E0F80199
:10180000A8E2B2E001900D928A95E1F7A3DE93DEA3
:101810004DCF90912E02292F207F89F4682D9A8A2E
:10182000898AA6017A899E2D07DD88E292E0B2DCE2
:1018300087E0F50111928A95E9F77DDE6DCF882367
:1018400009F48BCF809129028D110FC0809128025D
:10185000C8120BC0E11009C09683C8019BDC87E069
:10186000F50111928A95E9F778CFC801DBDC88236E
:1018700009F41ACFEE2009F417CF80912E0280329E
:1018800008F4BCCF20912802309129023A832983A1
:101890009C828B8290912C029D831E828F83CE012D
:1018A0000196ABCF483C5105A8F5882309F4FECE3C
:1018B000FE2CEE2009F4F8CE809129028D111EC075
:1018C00080912802C8121AC080912E0280FD0DC09E
:1018D000982F907F51F08683903F09F468CF982F1E
:1018E000907F905F8F70892B61CF87E0F801A8E22D
:1018F000B2E001900D928A95E1F72FCFC80192DCFA
:1019000081117CCF80912E02816080932E02C801CC
:1019100041DC23CF682D9A8A898AA6017A899E2D77
:101920008BDC87E0F50111928A95E9F7BBCEAEE03A
:10193000B0E0EDE9FCE00C943427288739874A872A
:101940005B876C877D878E87CE0108967EDE882335
:10195000A1F06C85662339F0288539854A855B8539
:101960007D858E8573DC8091EE019091EF01891366
:101970003CC02E96E2E00C94502787E0FE0138969A
:10198000DE01119601900D928A95E1F78C858823EE
:1019900051F38091EF0190E09C012F5F3F4F277042
:1019A00033274091EE014217130691F067E070E093
:1019B0000E949226DC01A051BE4F97E0FE013196B5
:1019C00001900D929A95E1F72093EF0195DDCBCF31
:1019D0000CDC1092EF011092EE0187E0E8E2F2E0F9
:1019E000DF011D928A95E9F7BECF90E067E070E0D5
:1019F0000E94922680519E4F28DE882309F4B9CF99
:101A00008091EE0190E067E070E00E949226FC0178
:101A1000E051FE4F20813181428153816481758183
:101A2000868114DC8091EE0190E001968770992701
:101A30008093EE0198CF80913702869586958695A2
:101A400008958091370287700895909137029770BA
:101A500081E009F480E00895809143020895909117
:101A60004302892B8093430208958095909143020D
:101A70009823909343020895109243020895909101
:101A80004202892B809342020895809590914202F0
:101A90009823909342020895109242020895089567
:101AA000FECF089590913802292F282329F08095A0
:101AB000892380933802F4CF08950895FECF0895C6
:101AC00090913902292F2823281721F0982B9093E1
:101AD0003902F4CF089590913902292F282329F053
:101AE0008095892380933902E9CF08958091390246
:101AF000882321F01092390280E0E0CF08950F93FF
:101B00001F93CF93DF930091040110910501C091C1
:101B1000430280914202C82B80913902882329F028
:101B2000C82B0E941F1E8111E1DFF801C083C09104
:101B30000401D091050148E050E06FE272E0CE016F
:101B40000E94F527892B59F088E0FE01AFE2B2E050
:101B500001900D928A95E1F7CE010E94811DDF91DF
:101B6000CF911F910F910895CACF08950895FECF88
:101B700008959091B30292FF0EC0982F990F990F7C
:101B8000990F962B90933702A9DB809137028695A7
:101B900086958695ECCFA2CB1092370280E0E7CFF6
:101BA000909137028095892380933702282F2770E0
:101BB00059F4891749F09091B30292FF05C08695B8
:101BC0008695869599DBE8CF0895CF93C82F8091AD
:101BD000B30282FB992790F99C17C9F0C0FB82F9E8
:101BE0008093B30282EB92E058D082E0D9DF8091FB
:101BF000500280FF0CC01F92CF938FEA90E09F931A
:101C00008F930E9489040F900F900F900F90CF91A7
:101C100008958091B30282FB882780F991E089279B
:101C2000D4CF81E0D2CF80E0D0CF60E070E0CB01B4
:101C3000E7C360E070E0CB01DDD3F7CFA3E0B0E015
:101C4000E4E2FEE00C9434272DD338D31B82CE017E
:101C500003964BD381E090E09093ED018093EC01EB
:101C600050D31A8219828A8184618A83CE010196B7
:101C700059D345D6DEDF2396E2E00C945027DECF21
:101C8000089522C308950FC3089524C3089533C34C
:101C9000089537C308953AC3089544C3089549C3C6
:101CA000089588C30895B2C30895A6E0B0E0EBE5B7
:101CB000FEE00C9432270E94671F8C018091440241
:101CC000909145028017910781F019821A820E9433
:101CD000671F682F49815A81792F80E090E00E9428
:101CE0002F0610934502009344022696E4E00C94DC
:101CF0004E270E94731F60934C0270934D02809395
:101D00004E0290934F026093480270934902809371
:101D10004A0290934B02089508950895FDCF0895C7
:101D20000895FEDFFBCF0895FECF08950895FEDFEE
:101D3000FBCF81E491E2DBD4F0DFF3CF81E00895C3
:101D4000FDCF0895FBCF0895089508950895FCDF11
:101D5000FCDFFCCF98DF811101C091DF80E592E0CC
:101D600094DF82EB92E097DF92DF87DA8091EA01DD
:101D70009091EB019BCA0E945E1F2AD4EBDF0E9468
:101D8000FF050E94351AD3CFA6E0B0E0EAECFEE0F2
:101D90000C942B27D5DF811109C087DF0E94481BD7
:101DA0000E9407062696EBE00C9447271DD410915D
:101DB000460280E036D3181306C01091470281E036
:101DC00030D3181751F38091500281FD30D3BADF20
:101DD000A82E86E4C82E82E0D82E10E09924939491
:101DE000812F1FD3082FF60181916F01081721F170
:101DF000B12CFF24F394E02EE8268E2D8F21A9F03C
:101E0000AA2099F0B9821A830E94671F9C838B8352
:101E10009D8291E0802F8F2109F490E049815A81C1
:101E20006B817C818D810E942F06FF0CF1E0BF1237
:101E300009C0F60131970083113011F45ADFAECF9B
:101E400011E0CECFBB24B394D8CF1F93CF93DF93B1
:101E500026D1EC01C11580E5D807F0F5C11580E465
:101E6000D80708F09CC0C03ED10520F5CD3CD10577
:101E700008F084C0C83AD10578F4C53AD10508F015
:101E800075C0C130D10519F1209709F1C430D105D1
:101E9000F0F4D0E0C0E01BC0C33CD105D0F7C85A75
:101EA000D0E0CC0FDD1FC05ADE4F0990D881C02D85
:101EB000D4640DC0C11580E2D80708F0D3C0C115A5
:101EC00081E0D80708F05CC0C83ED10510F7CE010C
:101ED000DF91CF911F910895C03682E5D80728F58C
:101EE000C03482E5D80708F06AC0C03282E5D8075E
:101EF00008F05EC0C11582E5D80708F499C02C2F00
:101F00002695269530E085E0220F331F8A95E1F76C
:101F10008C2F8370C1E0D0E002C0CC0FDD1F8A950A
:101F2000E2F7C22BD32BDD68D2CFC03A82E5D807C7
:101F300060F4C03882E5D80708F458C0CF71D0E00B
:101F4000DC2FCC27C46FD06AC2CFC03C82E5D80753
:101F500008F463C0C03E82E5D80708F09ACFDC2FB2
:101F6000CC27CC27DF71C06FD06AB1CFC55AD0E083
:101F7000CA56DE4FC881D0E0D064A9CFD065A7CFC4
:101F80008D2F2FD1182FCE01992789D0C12FD0E0C6
:101F9000DC2FCC27CC27DF71C82BD92B98CFCE01D3
:101FA00099277DD0CC27DF70C82BD92BD06A8FCF53
:101FB000CF71D0E0DC2FCC27C16FD06A88CF2C2F17
:101FC00026952695277030E0B5E0220F331FBA958D
:101FD000E1F78C2F8370C1E0D0E002C0CC0FDD1F91
:101FE0008A95E2F7C22BD32BDC6871CF2C2F269574
:101FF0002695277030E0A5E0220F331FAA95E1F760
:102000008C2F8370C1E0D0E002C0CC0FDD1F8A9519
:10201000E2F7C22BD32BDA685ACF8C2F8F71E1D025
:10202000C82FD0E0DC2FCC27CC27DF71D0624FCF78
:102030008C2F8F71D6D055E0D695C7955A95E1F77C
:10204000CF70D0E0DC2FCC27282F30E084FF06C0F3
:1020500044E0220F331F4A95E1F73327C22BD32BDD
:10206000D06935CF8D2F8F71BCD0182FCE01992715
:1020700016D0C12FD0E0DC2FCC27CC27DF71C82BA6
:10208000D92BD4CF462F723028F4623018F4672F42
:102090000C94A80490E080E00895F4DFD6CE823856
:1020A0009105B9F1B0F48133910509F47DC048F48C
:1020B0008932910509F46DC08A32910509F47BC01B
:1020C00008958533910509F45FC08933910509F1BD
:1020D0000895833E9105D9F138F4803E910529F1A8
:1020E000823E910579F10895863E9105D9F1873EAA
:1020F000910509F43EC0843E910541F52091B3025B
:1021000021FF24C08091B20284FD19C087EE90E0C7
:1021100008952091B202237009F05AC02091B302B1
:1021200023FF14C089E290E008952091B20220FDBF
:1021300038C03091B30230FF09C024FF43C090E0A3
:1021400080E008952091B20222FDF7CF08952091FA
:10215000B20222FD3AC03091B30230FD39C024FFF3
:10216000F5CFEDCF2091B20223FFF0CF24FDE7CFD2
:10217000CDCF2091B20223FD2EC03091B30231FFAA
:10218000EECF84EE90E008952091B20225FFDECFDD
:10219000C9CF2091B20225FD21C02091B30223FFB7
:1021A000D5CF89E390E0D2CF2091B20226FFCECFE7
:1021B0008AE290E008952091B20226FFC7CF81E322
:1021C00090E0089583EE90E0089582EE90E0089507
:1021D00080EE90E0089586EE90E0089585E390E02B
:1021E00008959091B20292FF10C041E0282F24710F
:1021F000243009F040E031E0282F2871283009F020
:1022000030E0431711F02CE0822793FF10C041E02B
:10221000282F2471243109F040E031E0282F287163
:10222000283109F030E0431711F02CE0822730917B
:10223000B30230FF10C051E0282F2171213009F086
:1022400050E041E0282F2871283009F040E0541771
:1022500011F029E0822731FF10C041E0282F2171C1
:10226000213109F040E031E0282F2871283109F0B0
:1022700030E0431711F029E0822794FD877E08950E
:10228000CF939C01205E3245C1E02032310538F405
:10229000FB01C581C11103C08F710E9421058C2FE4
:1022A000CF910895089590E080E00E94182821E0E1
:1022B000833E9E4F09F020E0822F089563EE7EEF6B
:1022C00090E080E00C9437286FEF7FEF90E080E0A3
:1022D0000C943728CF93DF93EC0182E090E00E94CA
:1022E0000B288883DF91CF910895FC01608182E003
:1022F00090E00C941D2883E090E00E940B2890E071
:102300000895682F83E090E00C941D28CF93DF930D
:10231000EC0184E090E00E94182899838883DF9183
:10232000CF910895FC016081718184E090E00C946C
:1023300037284F925F926F927F928F929F92AF92C7
:10234000BF920F93CF93DF93EC0188E090E00E945F
:1023500013282B013C01688359828A837B821C826B
:102360001D821E821F8283E290E00E940B28282F8C
:1023700030E040E050E060E070E080E090E000E2BB
:102380000E945B2724293529462957292883398328
:102390004A835B836C837D838E839F83DF91CF91A0
:1023A0000F91BF90AF909F908F907F906F905F90B4
:1023B0004F9008950F93CF93DF93EC01488159819B
:1023C0006A817B8188E090E00E942F2828813981F2
:1023D0004A815B816C817D818E819F8100E20E94B8
:1023E0007627622F83E290E00E941D28DF91CF9133
:1023F0000F910895AB01BC018FE090E00C942F2861
:10240000AB01BC0183E190E00C942F28682F8EE093
:1024100090E00C941D280895FECF08950895FECFF6
:102420000895E82FF0E0EA54FD4F80810895B0E070
:10243000A0E0EDE1F2E10C942C2783ED90E09F9376
:102440008F930E9489041F921F928EECC82E80E009
:10245000D82EDF92CF920E9489049BECE92E90E067
:10246000F92EFF92EF920E94890426EBA22E22E021
:10247000B22EF50180810E94D7051F928F9306EC42
:1024800010E01F930F930E948904C4ECD0E0DF9307
:10249000CF930E9489041F9281E08F93DF92CF92A5
:1024A0000E948904FF92EF920E948904F5018181C4
:1024B0000E94D7051F928F931F930F930E94890448
:1024C000DF93CF930E948904EDB7FEB77A960FB6DB
:1024D000F894FEBF0FBEEDBFCDB7DEB7EAE00C94B7
:1024E000482780EA8A95F1F7089500C00895F9CF4A
:1024F0000895F894E82FE295EF70F0E031A1282FCD
:102500002F7081E090E001C0880F2A95EAF7982F9C
:102510009095932391A392A1892B82A378940895F7
:1025200084E3E7DF83E3E5DF80E3E3DF85E3E1CF17
:10253000B0E0A0E0EEE9F2E10C942F278C01D62F59
:10254000C42F862F90E09C0127563E4F7901F90158
:1025500020812F3F79F1F894E22FE295EF70F0E0BF
:1025600031A12F7081E090E001C0880F2A95EAF731
:10257000932F982B91A392A18095892382A378947D
:10258000B4DFF8018081189B1AC09C2F9095892395
:102590008083D12CF80181811D9916C0C82BC1837D
:1025A000DD24D394F70180818F3F09F0A2DF6D2DE8
:1025B0008D2F9DDFCDB7DEB7E7E00C944B278C2B3A
:1025C0008083DD24D394E6CFC095C823C183EACFAE
:1025D000A7DF1092B7021092B6021092B5021092C5
:1025E000B40282E035D018CFA2E0B0E0EAEFF2E129
:1025F0000C9433271A82198241E060E0CE010196E3
:1026000097DF42E061E0CE01019692DF42E050E0C8
:10261000BE016F5F7F4F84EB92E00E94F52721E0BF
:10262000009709F420E0892B31F089819A819093F9
:10263000B5028093B40242E066EB72E084EB92E074
:1026400008D0182FECDE812F2296E3E00C944F2760
:102650000895B0E0A0E0EFE2F3E10C942E276C01C6
:102660007B01042FC22F222379F081E08093530253
:102670000E94671F909352028093510280E0CDB771
:10268000DEB7E8E00C944A27D0915302DD23B1F382
:1026900080915102909152020E94FE1EC29770F3E7
:1026A00010E0A801B601C7010E94F527892B31F07F
:1026B000A801B601C7010E940228CD2F1092530233
:1026C0008C2FDDCF61CB08950E94071F0E94A321AC
:1026D00030DB0E94BB214FDB0E94C4210E94C72136
:1026E000F1DF0E94E9210E94102031DBF7CF9093A7
:1026F000DF018093DE0108950F931F93CF938C0128
:10270000FB01C581CC2309F43BC0A6D98272F80134
:10271000E052F847EB30F10530F4EB58F74D0C94EC
:102720001E27FED6C0E08C2FCF911F910F910895E8
:10273000882321F079D6F6CF8823E1F369D6F2CF4A
:10274000882321F012D3EECF8823E1F303D3EACF1D
:10275000882321F024D3E6CF8823E1F313D3E2CFFB
:10276000882321F036D3DECF8823E1F325D3DACFD7
:10277000882321F07CD1D6CF8823E1F369D1D2CF51
:10278000C1E0D1CFEF92FF920F931F93CF93DF93CE
:10279000E82F71110EC0442321F0F0E0E554FB4F07
:1027A000E4916E2F7E2F8E2FCDB7DEB7E6E00C942E
:1027B0004C27262F30E0C72FD0E0F0E0442321F053
:1027C000E554FB4FE491F0E0C90166E070E00E943F
:1027D00092260FEF10E0B8010E94D526DB01220FF0
:1027E000331FCB0165E570E00E949226281B390B50
:1027F000E22EEE0CE20EC8018C1B9D0BBF010E9465
:102800009226292FF12CC701BE010E949226492F42
:1028100050E0C801841B950BBF010E949226392FFE
:10282000C8018E199F09BE010E949226492F50E0CF
:10283000C801841B950BBF010E9492266E2FA23007
:10284000B10589F038F4109759F0119781F0922F63
:10285000232F06C0A430B10569F080F01697B9F7B0
:10286000792F822FA1CF622F292F9E2FF9CF9E2F54
:10287000632FF6CF692F922F2E2FF2CF932F622F37
:10288000FBCF41E07FCF0895FCCF089590910901DF
:10289000291B922FE091C801F091C901242F462FE6
:1028A000682F892F90E009950895CF93DF93762FB5
:1028B000E901682F842FE8DF962F672F9E01482FAC
:1028C000892FE4DFDF91CF910895413808F040E887
:1028D000ECCF8091B802982F9C7F61F48370846064
:1028E0008093B8028091BB02813818F080E8809311
:1028F000BB0208958C3AB0F38370886AF1CFE8EB9D
:10290000F2E085E0808311828FEF828380E8838309
:102910001482CF01C6C98091500280FF8BC088E825
:1029200093E09F938F930E948904809150020F90AF
:102930000F9080FF7FC08091B80281701F928F93AB
:102940008BE693E09F938F930E94890480915002BD
:102950000F900F900F900F9080FF6CC08091B80285
:10296000869581701F928F938BE493E09F938F9352
:102970000E948904809150020F900F900F900F9049
:1029800080FF58C08091B802869586951F928F93DC
:1029900080E393E09F938F930E948904809150027B
:1029A0000F900F900F900F9080FF44C08091B9025C
:1029B0001F928F9386E193E09F938F930E948904E7
:1029C000809150020F900F900F900F9080FF32C0B7
:1029D0008091BA021F928F938CEF92E09F938F9316
:1029E0000E948904809150020F900F900F900F90D9
:1029F00080FF20C08091BB021F928F9382EE92E0F5
:102A00009F938F930E948904809150020F900F90A2
:102A10000F900F9080FF0EC08091BC021F928F9389
:102A200086EC92E09F938F930E9489040F900F9001
:102A30000F900F9008959091BC02933018F49F5F0F
:102A40009093BC02882319F088EB92E02AC908957C
:102A500081E0F1CF9091BC02992319F091509093AD
:102A6000BC02882319F088EB92E01BC9089581E02D
:102A7000F1CF0F931F93CF938091B80280FF09C0CD
:102A8000E091CC01F091CD010995CF911F910F916B
:102A90000895C0910B010091C8011091C901809166
:102AA0000C01C81768F7809109019C2F981B892F8A
:102AB00020E040E060E090E0F8010995CF5FEFCFC3
:102AC000EF92FF920F931F93CF93DF93D82F162F80
:102AD000042F8091B80280FF0BC0C0910B01E090E1
:102AE000C801F090C90180910C01C81730F0C1DF16
:102AF000CDB7DEB7E6E00C944C27809109019C2FFE
:102B0000981B892F202F412F6D2F90E0F7010995F9
:102B1000CF5FE9CF762F9091B80290FF0BC041387C
:102B200008F040E8682F842FAFDE962F672F482FDC
:102B3000892FC6CF0895CF93DF93EC01EC81F0E0AD
:102B4000EA54FC4F4491E8EBF2E062818181E2DFDC
:102B50008C818F5F8C83DF91CF910895CF93DF932A
:102B6000EC01E8EBF2E0438162818C81D3DF8C8160
:102B70008F5F8C83DF91CF910895CF93DF93EC012A
:102B80004091BB029C81892F817090FD842F692F19
:102B9000627091FD642F92FF40E092DF8C8190E0A3
:102BA0000196877099278C83DF91CF910895B0E0CB
:102BB000A0E0EDEDF5E10C942727D82F062F142F78
:102BC000E22E9091B80290FF43C0E92FE695E6957A
:102BD000AE2FB0E0A556BE4F8C91809399029C7F9A
:102BE0009430D9F5842F413808F080E86D2F702F8C
:102BF0004BDE962F672F482F892F62DFD093B902C3
:102C00000093BA021093BB02EE2009F481C088EB56
:102C100092E047D88091500280FF1AC08091BB0299
:102C20001F928F938091BA021F928F938091B90265
:102C30001F928F938BE391E09F938F930E9489045F
:102C40008DB79EB708960FB6F8949EBF0FBE8DBF86
:102C5000CDB7DEB7EFE00C944327823019F4109122
:102C6000BB02CCCF863019F4D091B902C7CF8930DE
:102C7000D9F3893119F6E9518E2F8170782E8E2F74
:102C800080958170F82EE695F0E0EA54FB4FC491F0
:102C9000512CAC2EB12C80E6C82E81E0D82E20918C
:102CA0000D01521610F0E5DEA9CF852C912CC40140
:102CB000B5010E949226622F70E00E94D5266D2EEB
:102CC000711024C0660E8091500280FF14C01F92C4
:102CD000CF931F92FF921F926F921F925F92DF928B
:102CE000CF920E9489048DB79EB70A960FB6F894CA
:102CF0009EBF0FBE8DBF20910B01280D392D311DB8
:102D0000412F602F862DE1DD5394C9CF661ADBCFAA
:102D10008091500280FF9CCF1F921F931F920F93B0
:102D20001F92DF9384E191E09F938F930E94890427
:102D30008DB79EB708960FB6F8949EBF0FBE8DBF95
:102D400087CFE8EBF2E09181282F4381628188E010
:102D5000890F2DCF81E0F5CFE8EBF2E09181282FAC
:102D60004381628188EF890F22CF81E0F5CFE8EBC4
:102D7000F2E0628121E1620F08F46FEF282F4381B6
:102D8000818115CF81E0F3CFE8EBF2E0628121E1B0
:102D9000621B08F460E0282F4381818108CF81E025
:102DA000F3CFE8EBF2E0438121E1420F08F44FEF6B
:102DB000282F62818181FBCE81E0F3CFE8EBF2E046
:102DC000438121E1421B08F440E0282F6281818188
:102DD000EECE81E0F3CF20E0EACEEF92FF921F9398
:102DE000CF93DF93EC0110E0EE24EA94F12C609194
:102DF0000D01161768F03DDE9A818C8190FF1DC091
:102E00008F5F8C83DF91CF911F91FF90EF9008959A
:102E100020910B01210F3327331F70E0C7010E945F
:102E2000E926812F0E9489269C814091BB026091F6
:102E3000BA02890F4ADD1F5FDACF8150E2CFB0E0DE
:102E4000A0E0E5E2F7E10C942C27FC018281DFEFA2
:102E500080FFD1E0C0E00091C8011091C9016CE091
:102E6000A62E80910D01C81790F003DE80915502C7
:102E7000D13009F04FC0811102C080910D01815005
:102E800080935502CDB7DEB7EAE00C9448278091D5
:102E90000B0190910901891B8C0F20E040E060E05C
:102EA00090E0F801099554E0E52EF12CB12CCC2EE0
:102EB000D12C809155028B0D8D3034F16A2D0E94FA
:102EC000C826892F082E000C990BC816D906A9F41C
:102ED00020910B012C0D3D2D311D8091BB0290E006
:102EE000B7010E9492269595879595958795482FCD
:102EF0006091BA028091B902E8DCBD0EF1E0EF1AF0
:102F0000F108B9F6CF5FADCF87FFDCCF90910D010F
:102F1000890FD8CF90E0019660910D0170E00E947A
:102F2000E926AECF0F931F93CF93C0910B01009171
:102F3000C8011091C90180910C01C81748F1C0E087
:102F40000091C8011091C90160910D01C61768F187
:102F500090DD2091070180915402820F80935402EA
:102F600090910801920F90930801191654F4082EBD
:102F7000000C990B40910D014150550B841795079A
:102F80001CF0219520930701CF911F910F91089577
:102F9000809109019C2F981B892F20E040E060E080
:102FA00090E0F8010995CF5FC6CFEC2FF0E070E01C
:102FB000CF010E94E92620910B01820F209154023B
:102FC000022E000C330BE217F3079CF0209108014E
:102FD000022E000C330B2E173F075CF0282F30E039
:102FE0004091BB026091BA028091B9026EDCCF5F62
:102FF000ABCF90910901891B20E040E060E090E0B8
:10300000F8010995F4CFB0E0A0E0E9E0F8E10C9414
:1030100026278C01FC01C481CC2ED12CF12CE12C73
:10302000A7019601C701B6010E94A326A701960138
:103030000E94A3262B013C0130E2C32ED12CCC1AD6
:10304000D1080D2C000CEE08FF0825E530E040E02B
:1030500050E00E94A3264B015C01A7019601C70125
:10306000B6010E94A326A70196010E94A3269B01F8
:10307000AC01240D351D461D571DC501B4010E942C
:10308000FC26D22F822F90E02A3238F563E070E0E0
:103090000E94922697FD019695958795C82FC09519
:1030A000F12C85E5E82EED1A80910D01F816E0F07F
:1030B000E0DCF801948181E0992319F0903219F451
:1030C0008FEF8093060180910601890FF8018483B8
:1030D000CDB7DEB7E0E10C94422725E530E0A90149
:1030E000481B590BCA01D2CF8E2DF1FC8D2F209198
:1030F0000B012F0D3327331F4C2F6091BA02E5DBF4
:10310000F394D2CF0F931F93CF93DF938C01D0E032
:10311000C0E090910D019C171D0609F06CF4A9DC2C
:10312000F801848190E00196817099278483DF9172
:10313000CF911F910F910895F801448120910B01C7
:103140002C0F3D2F311D6091BA028091B9029695E6
:103150009C171D0641F03CF0442339F04091BB021E
:10316000B4DB2196D6CF4423C9F340E0F9CFB0E0D9
:10317000A0E0EDEBF8E10C942827FC01728064805C
:1031800081E08483E6EBF3E08490E5E3F4E0E4910E
:10319000C091BB02C695C158D0E0CC0FDD1FCD2E2B
:1031A000DD24912CAA24AA94B12CE8190E2F10E04A
:1031B00080910D01981630F05CDCCDB7DEB7EEE003
:1031C0000C944427E92CF12C82E0871570F0C7019C
:1031D00065E070E00E949226FC01EA5AFD4F809162
:1031E000B90280838091BA028183C70165E070E0F3
:1031F0000E949226611018C0FC01EA5AFD4F13820A
:10320000128220910B012E0D3F2D311DC70165E06B
:1032100070E00E949226FC01EA5AFD4F42816181D2
:10322000808153DB9394C4CFEC01CA5ADD4F8B816C
:10323000882321F181508B8390E06FEF70E00E9432
:1032400092266C8170E00E94D526FB01FF27EA548C
:10325000FC4FE491E8198E2F90E06FEF70E00E9430
:103260009226B8010E94D5262091BB0230E0862F1D
:1032700090E0B9010E9492269A83C3CF0E94DA2778
:10328000B5010E94E9268C159D050CF0BACFE2E04D
:10329000E71588F40E94DA27B5010E94E9268883A1
:1032A0000E94DA272091BA022695622F70E00E94D0
:1032B000E926280F2983C70165E070E00E94922665
:1032C0008A5A9D4FFC0112822091BB02293C60F07A
:1032D00028ECC70165E070E00E949226FC01EA5AE2
:1032E000FD4F248323838DCF243198F724E1F1CF40
:1032F0006091B8026695669570E04BE050E08EE014
:1033000091E00E94E827892B19F481E080939A02CA
:10331000DED590939302809392028091500280FFB9
:1033200008C08BEF90E09F938F930E9489040F90C9
:103330000F90089510929A028091500280FF08C069
:1033400082EE90E09F938F930E9489040F900F90DC
:1033500008959091B80290FF38C09370811136C0E3
:1033600094609093B8026623C9F188EB92E00E94C2
:10337000510E8091500280FF10C08091B802869556
:1033800086951F928F938BE492E09F938F930E9478
:1033900089040F900F900F900F906091B80266957E
:1033A000669570E04BE050E08EE091E00E94E827E7
:1033B000892B09F1BFDF81E0809395024091BB0228
:1033C0006091BA028091B90206CD08958B3210F057
:1033D000986AC7CF880F880F982BC3CF809150026F
:1033E00080FFDBCF8091B802869586951F928F93E0
:1033F0008DE292E0CACF7CDFDECF682F9091B802D9
:103400009695969581E0890F8B3208F081E0A1CFE7
:1034100081E0F3CF682F9091B802969596958FEF43
:10342000890F09F48AE295CF81E0F4CF61E091CF72
:103430008091B80281608093B8028091500280FF31
:103440000DC01F9281E08F938FEB91E09F938F933C
:103450000E9489040F900F900F900F908091B802F6
:1034600086958695E3CF60E074CF809198028111B4
:1034700038C08091500280FF08C080EB92E09F939B
:103480008F930E9489040F900F9088EB92E00E9426
:103490004F0E8091B8028C7F89F48091500280FF9A
:1034A00008C087E692E09F938F930E9489040F9053
:1034B0000F9025DA88EB92E00E944F0E0ADA2BDAA1
:1034C00010929A02E091C601F091C701099580918E
:1034D000B80280FF03C086958695C5DF81E08093A2
:1034E000980208958091B8028E7F8093B80288EB8D
:1034F00092E00E94510E8091500280FF0FC0809197
:10350000B80281701F928F9387E891E09F938F9309
:103510000E9489040F900F900F900F900BDFA9CAA3
:103520008091500280FF10C08091B8028095817018
:103530001F928F9386EF91E09F938F930E9489044F
:103540000F900F900F900F908091B80280FF01C0F4
:10355000C9CF6ECF0F931F93CF93DF9380919A02C1
:103560008823B1F180919902E091B802E695E69541
:10357000E81BE0939402823081F5F0E0EE54FC4FBA
:10358000E491CE2FD0E00BE915E1809195028823DC
:1035900059F0109295029BD49093930280939202DB
:1035A000109297021092960292D4E0919202F091BA
:1035B00093028E1B9F0B8F3F9F4750F4EC0FFD1F14
:1035C000F0939302E093920282E992E0F801099568
:1035D000DF91CF911F910F910895863049F4F0E06B
:1035E000E155FC4FE491CE2FD0E00EEA15E1CDCFAE
:1035F000893051F4E695F0E0E455FC4FE491CE2F8C
:10360000D0E00DEE16E1C1CF8F3051F4E695F0E039
:10361000E755FC4FE491CE2FD0E00FE117E1B5CF95
:10362000853149F4F0E0EA55FC4FE491CE2FD0E02B
:1036300002E917E1AACFC8E2D0E003E018E188313F
:1036400009F4A3CF833239F4E4EAF3E0C591D491CD
:103650000DEB15E19ACFC4EFD1E002E818E1843216
:1036600009F493CFC0EDD7E003E414E1853209F00B
:103670008CCF8E2F63E00E94BC26E92FF0E0EF553F
:10368000FC4FE491CE2FD0E007EB18E17ECF0895F8
:1036900061CF0895539A0895362F63E070E00E9439
:1036A0009226DC01A054BD4F11963C9311974C9388
:1036B000FD0122830895E0ECF2E081836083428380
:1036C000339692E0E43EF907C1F708953BB1377FA6
:1036D0002BB128604FB7F89480EC92E0FC01519137
:1036E000CF0168E02BB9000000C057FF3BB9550F70
:1036F000000000C000C000C03BB900C06A9591F74F
:10370000F2E0843E9F0751F74FBF8FE594E00197A9
:10371000F1F700C00000089580E00895CF93C82F0E
:1037200080919B02882391F1813071F58C2FF4DF19
:10373000811122C0C43111F158F4CB3069F086ED0B
:1037400095E09F938F930E9489040F900F9018C06B
:10375000C932A1F0C83399F78BEB95E09F938F9313
:103760000E94890488ED95E09F938F930E948904BD
:103770000F900F900F900F9081E003C010929B026A
:1037800080E08170CF91089510929B0280E0FACF83
:10379000CF93DF93EB0186319C4701F50E942C0DFE
:1037A0009D81992391F08A7A91E009F490E09093B9
:1037B0009C02811108C089E292D20E94B40D80E07F
:1037C000DF91CF91089585E3F7CF80919C0281111D
:1037D00003C089E28AD2F1CF85E3FCCF81E0F0CF4C
:1037E000CF93DF93EC01FB018581882309F4CEC0E0
:1037F0009E0130572332310508F0AEC082EB92E0D3
:103800000E944B0EFE01E150F047E232F10520F438
:10381000E058F74D0C941E278091B202816080938E
:10382000B20293C08091B30288608093B3028DC0CE
:103830008091B2028260F3CF8091B2028460EFCFB8
:103840008091B2028860EBCF8091B3028160EDCFAE
:103850008091B3028260E9CF8091B2028061DFCFB4
:103860008091B2028062DBCF8091B2028064D7CFB8
:103870000E94F5088091B2028068D1CF8091B20297
:103880008C60CDCF8091B3028360CFCF8091B202A4
:103890008E7FC5CF8091B302877FC7CF8091B20260
:1038A0008D7FBDCF8091B2028B7FB9CF8091B20264
:1038B000877FB5CF8091B3028E7FB7CF8091B3025F
:1038C0008D7FB3CF8091B2028F7EA9CF8091B2025B
:1038D0008F7DA5CF8091B2028F7BA1CF0E94F5088A
:1038E0008091B2028F779BCF8091B202837F97CF76
:1038F0008091B3028C7F99CF8091B20282FB99278D
:1039000090F921E0922790FB82F990FB83F987CF11
:103910008091B302982F909591708E7F892B90FBA8
:1039200081F983CF9091B202892F8F7B96FF8064BB
:1039300076CF0E94F5089091B202892F97FB87F904
:1039400080586DCF81E00E94530E82EB92E00E947E
:103950004D0E0E94F50880E0DF91CF91089580E040
:10396000F2CF9091B202892F8F7E94FF806157CF62
:103970009091B202892F8E7F90FF816050CF9091FD
:10398000B302892F877F93FF88604FCF81E0E4CF18
:103990000F931F93CF93DF93C42FD22FFC01858108
:1039A0008823C1F040939F0292D290939E0280930D
:1039B0009D0280E28C0F883040F4C77081E001C026
:1039C000880FCA95EAF70E94E906DF91CF911F910F
:1039D0000F91089510919F02141331C080919D02A0
:1039E00090919E020BD2883C910548F5C0E2CD0F24
:1039F0001D17B9F080E2810F883040F4177081E024
:103A000001C0880F1A95EAF70E94EE06C83048F404
:103A100081E09D2F977001C0880F9A95EAF70E9468
:103A2000E906802F0E94E206C83078F6D77081E060
:103A300001C0880FDA95EAF70E94EE06C6CF80E251
:103A40008C0F883010F6C77081E001C0880FCA95CE
:103A5000EAF7F2CF0F93DB0188519C47873091053D
:103A600098F5FC01EE55F74D0C941E2706E221EE69
:103A700041EE6AE17CE7CD018BDF80E00F91089594
:103A800007E225EE45EE6BE17CE7F5CF06E221EE9D
:103A900040EE68E17CE7EFCF07E225EE44EE69E116
:103AA0007CE7E9CF06E221EE42EE6CE17CE7E3CF72
:103AB00007E225EE46EE6DE17CE7DDCF08E221E08E
:103AC00045EE6EE17CE7D7CF15968C91882319F0EF
:103AD00010929F02D3CF81E0D1CF9093A502809323
:103AE000A4020895E091A402F091A502309739F064
:103AF0000190F081E02D309711F00995089580E054
:103B00000895EF92FF920F931F93CF93DF93EC01F1
:103B1000E091A402F091A5023097F1F10280F381C7
:103B2000E02D3097C9F109958091500282FF34C091
:103B300080FF0DC088811F928F9384EE95E09F9344
:103B40008F930E9489040F900F900F900F907E0129
:103B500086E0E80EF11C0EED15E08091500280FF2A
:103B60000BC08A811F928F931F930F930E94890429
:103B70000F900F900F900F902196CE15DF0569F7EB
:103B80008091500280FF08C08CED95E09F938F9349
:103B90000E9489040F900F90CDB7DEB7E6E00C9439
:103BA0004C27A3E0B0E0E7EDFDE10C943427209131
:103BB000A2023091A30228173907B1F09093A30213
:103BC0008093A202E091A402F091A502309761F0E7
:103BD0000084F185E02D309739F023E029839B8321
:103BE0008A83CE01019609952396E2E00C94502732
:103BF000A3E0B0E0EEEFFDE10C9434272091A002A9
:103C00003091A10228173907B1F09093A102809357
:103C1000A002E091A402F091A502309761F0008427
:103C2000F185E02D309739F024E029839B838A8346
:103C3000CE01019609952396E2E00C94502740911D
:103C40000401509105019A012E5F3F4F485F5F4F7D
:103C500080E02417350709F40895F90191919F0137
:103C60009923B9F38F5FF5CF882371F02091040178
:103C700030910501F9013296285F3F4F91919817D5
:103C800029F0E217F307D1F780E0089581E0089565
:103C90009C01FC0132969FEF80E04191461751F064
:103CA0009F3F19F4411101C0982F8F5F8630A9F70B
:103CB0009F3F09F40895290F311D97FD3A95F901A9
:103CC00062830895FC01329608962191261303C061
:103CD000DF0111971C92E817F907B9F70895682FCB
:103CE0008091040190910501D3CF682F8091040148
:103CF00090910501E7CFE0910401F0910501329622
:103D000086E0DF011D928A95E9F708950895FECFB8
:103D1000089581110CC081E080931C01609119010C
:103D200070911A0180911B0190911C01F0CF82E0EB
:103D3000F3CF83E080931C016091190170911A0107
:103D400080911B0190911C01E2CFE3CF089581E0A7
:103D500080931C016091190170911A0180911B01DF
:103D600090911C01D4CFF3CF089591E0811101C04F
:103D700090E090931B016091190170911A0180915C
:103D80001B0190911C01C3CF80911B01089580936A
:103D90001A016091190170911A0180911B01909193
:103DA0001C01B5CF80911A0108958093190160918B
:103DB000190170911A0180911B0190911C01A7CFEC
:103DC00080911901089508950895FECF08950895EA
:103DD0000895F9CF0895FBDF0E94F412F9DF80E027
:103DE0000E94111291E0811107C081E00E9411121E
:103DF00091E0811101C090E0892F0895CF93DF9366
:103E0000EC0165D08C1B9D0BDF91CF910895089537
:103E10001F921FB61F9211248F939F93AF93BF934E
:103E20008091A602811113C08091E4029091E50275
:103E3000A091E602B091E7024196A11DB11D8093C9
:103E4000E4029093E502A093E602B093E702BF91EB
:103E5000AF919F918F911F901FBE1F9018958091D9
:103E6000EC02843031F10E94CF051092A60288E165
:103E700090E020E40FB6F894A895809360000FBE00
:103E80002093600083B7817F846083BF83B78160A4
:103E900083BF7894889583B78E7F83BF0FB6F894DD
:103EA000A895809160008861809360001092600006
:103EB0000FBE08950E94F5080C94D30582E084BDDE
:103EC00093E095BD9AEF97BD80936E0008952FB74C
:103ED000F8948091E4029091E502A091E602B091FD
:103EE000E7022FBF08952FB7F8946091E402709114
:103EF000E5028091E6029091E7022FBF0895789441
:103F00001F921FB61F9211248F939F93AF93BF935D
:103F10008091E4029091E502A091E602B091E7025F
:103F20000196A11DB11D8093E4029093E502A09338
:103F3000E602B093E702BF91AF919F918F911F90DE
:103F40001FBE1F90189581E08093E00080E280936F
:103F5000D8001092C9008FE19EE40197F1F700C0EC
:103F6000000087E090EBDC018093F5029093F6026D
:103F7000A093F702B093F80288E19CE00FB6F894A2
:103F8000A895809360000FBE90936000FFCF88E1FA
:103F90009CE00FB6F894A895809360000FBE9093B4
:103FA0006000FFCF089508959B01BA019091EC0243
:103FB0009430E1F48F708093E9009FEF8091E800E6
:103FC000915085FD06C085ED8A95F1F700009111AD
:103FD000F5CF8091E80085FF09C050E040E0C901BD
:103FE0006CD28091E8008E778093E800089543E0DA
:103FF00050E0BC0182E0D8CFCF93DF93EC01C4DE68
:1040000048E050E0BE0181E0CFDF88E0FE01AAEA8F
:10401000B2E001900D928A95E1F7DF91CF9108957A
:1040200008958BE196E09F938F930E9489048FDE21
:1040300081E09BDE0F900F90089587E196E09F93BB
:104040008F930E9489046091E80281E0611101C0B0
:1040500080E06FDE0F900F90089583E196E09F93CC
:104060008F930E9489049091EC0281E0943009F0D2
:1040700080E06091E80269DE0F900F900895209132
:10408000A8022F5F822F62E377D6992319F020933D
:10409000A80208951092A8028091A9028823F1F045
:1040A0008091EC028430C1F49091E9009F702091DE
:1040B000EC00822F817020FD80E8892B93E09093A3
:1040C000E9009091EB0090FF04C09091EE0097FD05
:1040D00008C08F708093E9001092A9020895109291
:1040E000F1009091E80095FDFACF9091E80090FFE3
:1040F000F0CF9091E8009E779093E800EACF42E0FD
:1041000061EC81E0E0D242E261EC82E0DCD242E2AA
:1041100061EC83E0D8D29091EC0281E0943009F018
:1041200080E06091E802F5CD8091EE02833009F4E1
:104130005CC030F48130B1F1823009F492C008954E
:104140008A3009F481C08B3009F469C0893009F0E4
:104150004BC08091ED02813209F046C08091F1029E
:104160009091F202029708F03FC08091E800877FAB
:104170008093E8008091E80082FF32C08091F200D5
:10418000823031F48091F100813011F0863019F4E1
:104190008091F100FCDD8091E8008B778093E8004E
:1041A000C6D222C08091ED02813AF1F48091E800FC
:1041B000877F8093E8008091F1029091F202892B31
:1041C00059F468E08AEA92E070E0C4D18091E80096
:1041D0008B778093E800089560E090E080E0F4CF72
:1041E0008091EC028111C6CF08958091ED02813A51
:1041F000D9F78091F1029091F202892BA9F7809171
:10420000E800877F8093E8008091E80080FFFCCF82
:10421000BBDD8093F1008091E8008E77BFCF809165
:10422000ED02813209F78091F1029091F202892B1F
:10423000D9F68091E800877F8093E80078D280915A
:10424000EF0293DD0C94F5088091ED02813261F666
:104250008091E800877F8093E80069D28091F00226
:10426000A4CD8091ED02813A09F0BECF8091E800A3
:10427000877F8093E8008091E80080FFFCCFA0DD7D
:10428000C8CF9FB7F8941092A9029FBF9091EC02FB
:10429000943009F048C02091E9002F703091EC0073
:1042A000932F917030FD90E8922B23E02093E9004A
:1042B0002091EB0020FF34C02091EE0027FF30C09A
:1042C0002091A702222321F02091E80025FF28C099
:1042D0001092A70226E03091E80035FF14C08093C9
:1042E000F1008091E80085FD27C08091E80080FF03
:1042F000FCCF8091E8008E778093E8009F709093C8
:10430000E90080E008953091EC02343049F43091B6
:10431000EB0035FD05C0215041F481E08093A702F8
:104320009F709093E9008FEF0895EFE9FFE03197D8
:10433000F1F700C00000CFCF8FB7F89421E02093B1
:10434000A9028FBFDBCF84B7877F84BF0FB6F894F5
:10435000A895809160008861809360001092600051
:104360000FBE80E890E00FB6F894809361009093C0
:1043700061000FBEF8CC2BD278D2E2EEF0E0808163
:10438000846080837894ABC48DE191E0A6CB80916A
:10439000EC02853089F48091500280FF08C08DEFD7
:1043A00095E09F938F930E9489040F900F908091C6
:1043B000EC02853011F07ECD089551DD0CDD8823AF
:1043C000B1F38091EA02882391F361D00E94F5084D
:1043D000EECF08959A014091F3025091F40200C08B
:1043E000492F55274330510521F168F441305105DB
:1043F00009F443C04230510509F444C090E080E024
:1044000050E040E026C04132510551F142325105A1
:10441000A9F76330710590F7FB01EE0FFF1FEF5214
:10442000FE4F4081518162537E4FFB01808190E0BD
:1044300010C099278130910581F0009729F00297EB
:10444000E9F6EFE1F6E002C0E1E6F6E0849190E003
:10445000AF01F901518340830895E1E4F6E0F6CF1E
:104460006330710558F6660F771FFB01E952FE4F66
:104470004081518189E090E0ECCF82E190E049EB0E
:1044800056E0E7CF84E590E045E656E0E2CF84E0F1
:1044900089BD86E089BD09B400FEFDCF8091D800BA
:1044A0008F7D8093D8008091E00082608093E0004F
:1044B0008091E00081FDFCCF0895AF92BF92CF9232
:1044C000DF92FF920F931F93CF93DF936C01EB0169
:1044D0008A014CD1F82E811123C00115110539F044
:1044E000F80180819181C81BD90BC80ED91EB12C4F
:1044F000A12C2097A9F08091E80085FD21C0809132
:10450000E8008E778093E80001151105A1F0F8010D
:1045100080819181A80EB91EB182A08285E0F82E1B
:104520008F2DDF91CF911F910F91FF90DF90CF9052
:10453000BF90AF9008951AD18823D9F2F82EF0CF0A
:10454000F60181916F018093F1002197FFEFAF1A7F
:10455000BF0ACFCFFC018091F3029091F40286173D
:104560009707A0F06115710529F49091E8009E77F6
:104570009093E80090E06115710551F4911108C025
:104580008091E80082FF32C080E00895BC01F2CF44
:104590008091EC028823B1F18530B1F18091E8007F
:1045A00083FD2EC08091E80082FDEACF8091E80073
:1045B00080FFE1CF2091F20030E06115710519F024
:1045C0002830310558F091E02830310509F090E0AD
:1045D0002091E8002E772093E800CDCF8191809341
:1045E000F100615071092F5F3F4FE7CF8091EC02DE
:1045F000882341F0853041F08091E80083FFC0CFEF
:1046000081E0089582E0089583E00895FC0180919F
:10461000F3029091F40286179707A0F061157105D7
:1046200029F48091E8008E778093E80090E061158E
:10463000710551F4911108C08091E80082FF33C0E8
:1046400080E00895BC01F2CF8091EC028823B9F19B
:104650008530B9F18091E80083FD2FC08091E8009A
:1046600082FDEACF8091E80080FFE1CF2091F20047
:1046700030E06115710519F02830310558F091E0EE
:104680002830310509F090E08091E8008E77809322
:10469000E800CDCF84918093F1003196615071098B
:1046A0002F5F3F4FE6CF8091EC02882341F08530A9
:1046B00041F08091E80083FFBFCF81E0089582E060
:1046C000089583E00895982F953028F08F70809397
:1046D000E90081E008959093E900242F762F50E0BF
:1046E000981731F07091EC002091ED005091F0009E
:1046F00021FD02C09F5FE8CF3091EB003E7F3093F9
:10470000EB003091ED003D7F3093ED003091EB00F8
:1047100031603093EB007093EC002093ED005093E8
:10472000F0002091EE0027FDE5CF80E00895809114
:10473000ED0287FF13C08091E80082FF06C08091E0
:10474000E8008B778093E80004C08091EC0281112F
:10475000F2CF08958091EC028823D9F38091E8008C
:1047600080FFF8CF8091E8008E77ECCF2091E400B5
:104770003091E50095E6A9012091EC00822F81702F
:1047800020FF06C08091E80080FF06C080E0089509
:104790002091E80022FD1AC08091EC02882389F064
:1047A000853089F08091EB0085FD0FC02091E400F9
:1047B0003091E50042175307F9F29150E1F684E099
:1047C000089582E0089583E0089581E0089556D029
:1047D00058D0E0EEF0E0808181608083E8EDF0E089
:1047E00080818F77808319BCE3E6F0E0808181606F
:1047F00080831092EB02089541D043D08091D8007D
:104800008F778093D8008091D80080688093D800FB
:104810008091D8008F7D8093D80084E089BD86E0A8
:1048200089BD09B400FEFDCF1092EC021092E8029F
:104830001092EA021092E90242E060E080E043DF79
:104840008091E1008E7F8093E1008091E2008160A1
:104850008093E2008091E20088608093E200809182
:10486000E0008E7F8093E0000895E3E6F0E0808131
:104870008E7F808381E08093EB02BECF1092E200B6
:1048800008951092E10008951F920F920FB60F92B3
:1048900011242F933F934F935F936F937F938F9345
:1048A0009F93AF93BF93EF93FF938091E10082FFBB
:1048B0000AC08091E20082FF06C08091E1008B7FF8
:1048C0008093E100DCDB8091E10080FF18C08091E3
:1048D000E20080FF14C08091E2008E7F8093E200AE
:1048E0008091E20080618093E2008091D800806234
:1048F0008093D80019BC85E08093EC029EDB809108
:10490000E10084FF2AC08091E20084FF26C084E099
:1049100089BD86E089BD89B5982F917080FFFBCF56
:104920008091D8008F7D8093D8008091E1008F7EA8
:104930008093E1008091E2008F7E8093E20080917D
:10494000E20081608093E2008091E802882309F40C
:1049500040C084E08093EC0280DB8091E10083FF23
:1049600027C08091E20083FF23C08091E100877F10
:104970008093E10082E08093EC021092E802809143
:10498000E1008E7F8093E1008091E2008E7F809332
:10499000E2008091E20080618093E20042E060E00A
:1049A00080E091DE8091F00088608093F00039DB38
:1049B000FF91EF91BF91AF919F918F917F916F91F7
:1049C0005F914F913F912F910F900FBE0F901F90CD
:1049D00018958091E30087FD93E09093EC02BCCFA3
:1049E0001F920F920FB60F9211242F933F934F9364
:1049F0005F936F937F938F939F93AF93BF93CF9367
:104A0000DF93EF93FF93D091E900DF708091EC008A
:104A1000C82FC17080FDC0E81092E9008091F000BD
:104A2000877F8093F00078941ED01092E9008091E7
:104A3000F00088608093F000CD2BCF70C093E90028
:104A4000FF91EF91DF91CF91BF91AF919F918F91A6
:104A50007F916F915F914F913F912F910F900FBE7A
:104A60000F901F901895AAE2B0E0E8E3F5E2FBC1D1
:104A70008DEE92E02091F100FC012193CF01F2E054
:104A8000853F9F07B9F750DB8091E80083FF16C18F
:104A90008091ED029091EE029A3008F00FC1E92F5B
:104AA000F0E0E755F74DCAC1803899F0823809F037
:104AB00005C18091F1028F70853008F0FFC08093AE
:104AC000E9008091EB0085FB882780F91092E900CE
:104AD00006C08091E9029091EA0291118260909162
:104AE000E800977F9093E8008093F1001092F10026
:104AF0008091E8008E77DFC0882309F4CDC0823032
:104B000009F0DCC08091EF028111D0C08091F102E8
:104B10008F702FEF280F243008F0D0C08093E90069
:104B20002091EB0020FFC2C0933031F48091EB0064
:104B300080628093EB00BAC09091EB0090619093FB
:104B4000EB0021E030E001C0220F8A95EAF72093C4
:104B5000EA001092EA008091EB008860EACF8111B0
:104B6000ADC01091EF021F778091E3008078812B18
:104B70008093E3008091E800877F8093E800D7DD91
:104B80008091E80080FFFCCF8091E30080688093F3
:104B9000E30082E0111183E08093EC028FC0805823
:104BA000823008F08BC08091EF029091F0028C3D32
:104BB00023E0920799F583E08A838AE289834FB7DD
:104BC000F894DE01139620E03EE051E2E32FF0E09E
:104BD00050935700E49120FF03C0E295EF703F5FD0
:104BE000EF708E2F90E0EA30B8F0C7968D939D93CA
:104BF0002F5F243159F74FBF8091E800877F809362
:104C0000E8006AE270E0CE010196A4DC8091E80041
:104C10008B778093E80052C0C096E8CF6091F10294
:104C20007091F202AE014F5F5F4FD4DBBC01892B64
:104C300009F444C09091E800977F9093E80089813F
:104C40009A81E4DCE3CF8038C9F58091E800877F62
:104C50008093E8008091E8028093F10049CF8111B0
:104C60002DC09091EF02923048F58091E800877F47
:104C70008093E8009093E8025ADD8091E80288234F
:104C800011F084E005C08091E30087FDFACF81E058
:104C90008093EC0234DA12C08091EF02813071F41B
:104CA00081E0933009F080E08093EA021092E900FD
:104CB0008091E800877F8093E80039DD8091E800EB
:104CC00083FF0AC08091E800877F8093E80080918D
:104CD000EB0080628093EB00AA96E3E0E0C0CF9304
:104CE0008091EC02882399F0C091E900CF709091F7
:104CF000EC00892F817090FD80E8C82B1092E900AC
:104D00008091E80083FDAFDECF70C093E900CF91C2
:104D10000895002480FD060E660F11F08695D1F7E8
:104D2000802D08950024552704C0080E591F880FB0
:104D3000991F009729F076956795B8F37105B9F733
:104D4000802D952F0895EE27FF27AA27BB2708C09F
:104D5000A20FB31FE41FF51F220F331F441F551F5F
:104D6000969587957795679598F37040A9F7009782
:104D700099F7BD01CF010895991B79E004C0991FEF
:104D8000961708F0961B881F7A95C9F780950895A5
:104D900087FB082E062687FD819567FD6195ECDF70
:104DA0000EF4919507FC81950895AA1BBB1B51E158
:104DB00007C0AA1FBB1FA617B70710F0A61BB70B8B
:104DC000881F991F5A95A9F780959095BC01CD0130
:104DD000089597FB072E16F4009406D077FD08D0AF
:104DE000E4DF07FC05D03EF4909581959F4F089530
:104DF000709561957F4F0895A1E21A2EAA1BBB1BE7
:104E0000FD010DC0AA1FBB1FEE1FFF1FA217B30796
:104E1000E407F50720F0A21BB30BE40BF50B661FAC
:104E2000771F881F991F1A9469F760957095809570
:104E300090959B01AC01BD01CF010895EE0FFF1FBE
:104E40000590F491E02D09942F923F924F925F923A
:104E50006F927F928F929F92AF92BF92CF92DF928A
:104E6000EF92FF920F931F93CF93DF93CDB7DEB7EF
:104E7000CA1BDB0B0FB6F894DEBF0FBECDBF099483
:104E80002A88398848885F846E847D848C849B84DA
:104E9000AA84B984C884DF80EE80FD800C811B81E8
:104EA000AA81B981CE0FD11D0FB6F894DEBF0FBE17
:104EB000CDBFED010895002E083090F0982F872F78
:104EC000762F652F542F432F322F22270850F4CFEF
:104ED000220F331F441F551F661F771F881F991FFE
:104EE0000A95B2F7002D089597FD1094002E083012
:104EF00098F00850232F342F452F562F672F782FE7
:104F0000892F912DF4CF159497958795779567956F
:104F100057954795379527950A95AAF71124002D9F
:104F200008958F929F92AF92BF92CF92DF92EF92AD
:104F3000FF92CF93DF93EC01688179818A819B8115
:104F4000611571058105910521F464E279ED8BE528
:104F500097E02DE133EF41E050E09DD049015A0147
:104F600027EA31E440E050E0EEDE6B017C012CEEFC
:104F700034EF4FEF5FEFC501B401E5DEDC01CB019B
:104F80008C0D9D1DAE1DBF1DB7FF03C00197A1096C
:104F9000B04888839983AA83BB839F77DF91CF91A1
:104FA000FF90EF90DF90CF90BF90AF909F908F9049
:104FB0000895B7CF80E091E0B4CFB0E0A0E0809357
:104FC000000190930101A0930201B09303010895A1
:104FD000FC014150504030F001900616D1F7319756
:104FE000CF010895882799270895FB01DC0104C0AB
:104FF0008D910190801921F441505040C8F7881BD1
:10500000990B0895FB01DC0102C001900D92415003
:105010005040D8F70895F999FECF92BD81BDF89A16
:10502000992780B50895A6E1B0E044E050E025C09E
:10503000A8E1B0E042E050E020C0262FF999FECF71
:1050400092BD81BDF89A019700B4021639F01FBADB
:1050500020BD0FB6F894FA9AF99A0FBE08950396F8
:10506000272FECDFEADF252FE9DF242FE7CF01969A
:10507000272FE4DFE2CFDC01CB01FC01F999FECF61
:1050800006C0F2BDE1BDF89A319600B40D924150D0
:105090005040B8F70895052E97FB16F400940FD0F2
:1050A00057FD05D0A9DE07FC02D046F408C0509594
:1050B0004095309521953F4F4F4F5F4F0895909504
:1050C0008095709561957F4F8F4F9F4F0895F8940D
:1050D000FFCF3107310767076707C007590759072F
:1050E0005907DC07450851085108911398139C1380
:1050F000A013A413A813AC13B013B413B813BC13A8
:10510000461CB81C4E1C181C1C1C521C201C561C77
:10511000621C2C1CB11C301C661C341C6A1C921CAA
:10512000381C6E1C991C3E1C741C7C1C241C5A1CB4
:10513000281C5E1C421C781C881CA21CAF1C121C64
:105140004A1CBF1C461D4C1D361D401D521D581DBE
:105150005E1D54257C255E267C255E26AF25CF2549
:065160005E2623262F2627
:10516600010000003A02010102000C000C0C0119BA
:105176001A1B1C1D1E1F20212200000100D21EFC2E
:105186001FD31FD21FF71FE200E900EA00B500B6E1
:1051960000B700CD008301CC008A01920194012161
:1051A60002230224022502260227022A02B300B4A1
:1051B600006F0070009F01CB019F02A002818283D5
:1051C600E200E900EA00B500B600B700CD008301B1
:1051D600CC008A01920194012102230224022502B5
:1051E600260227022A02B300B4006F0070009F0156
:1051F600CB019F02A00281828334330001020202A6
:10520600020606060909090909090F0F0F0F0F0FF4
:1052160015151518191919191919191919192324F0
:105226002525252525254A1B4C1B5B1B661B443261
:0E523600151207E006CB0677069006A90600C3
:00000001FF
